{
    "contractName": "ArtCoinFactory",
    "abi": [
        {
            "anonymous": false,
            "inputs": [
                {
                    "indexed": true,
                    "internalType": "address",
                    "name": "_owner",
                    "type": "address"
                },
                {
                    "indexed": true,
                    "internalType": "address",
                    "name": "_approved",
                    "type": "address"
                },
                {
                    "indexed": true,
                    "internalType": "uint256",
                    "name": "_tokenId",
                    "type": "uint256"
                }
            ],
            "name": "Approval",
            "type": "event"
        },
        {
            "anonymous": false,
            "inputs": [
                {
                    "indexed": true,
                    "internalType": "address",
                    "name": "_owner",
                    "type": "address"
                },
                {
                    "indexed": true,
                    "internalType": "address",
                    "name": "_operator",
                    "type": "address"
                },
                {
                    "indexed": false,
                    "internalType": "bool",
                    "name": "_approved",
                    "type": "bool"
                }
            ],
            "name": "ApprovalForAll",
            "type": "event"
        },
        {
            "anonymous": false,
            "inputs": [
                {
                    "indexed": false,
                    "internalType": "uint256",
                    "name": "artId",
                    "type": "uint256"
                },
                {
                    "indexed": false,
                    "internalType": "string",
                    "name": "name",
                    "type": "string"
                },
                {
                    "indexed": false,
                    "internalType": "string",
                    "name": "artist",
                    "type": "string"
                }
            ],
            "name": "NewArt",
            "type": "event"
        },
        {
            "anonymous": false,
            "inputs": [
                {
                    "indexed": true,
                    "internalType": "address",
                    "name": "previousOwner",
                    "type": "address"
                },
                {
                    "indexed": true,
                    "internalType": "address",
                    "name": "newOwner",
                    "type": "address"
                }
            ],
            "name": "OwnershipTransferred",
            "type": "event"
        },
        {
            "anonymous": false,
            "inputs": [
                {
                    "indexed": true,
                    "internalType": "address",
                    "name": "_from",
                    "type": "address"
                },
                {
                    "indexed": true,
                    "internalType": "address",
                    "name": "_to",
                    "type": "address"
                },
                {
                    "indexed": true,
                    "internalType": "uint256",
                    "name": "_tokenId",
                    "type": "uint256"
                }
            ],
            "name": "Transfer",
            "type": "event"
        },
        {
            "inputs": [
                {
                    "internalType": "string",
                    "name": "_artName",
                    "type": "string"
                },
                {
                    "internalType": "string",
                    "name": "_artist",
                    "type": "string"
                },
                {
                    "internalType": "address",
                    "name": "_owner",
                    "type": "address"
                }
            ],
            "name": "_createArtCoin",
            "outputs": [],
            "stateMutability": "nonpayable",
            "type": "function"
        },
        {
            "inputs": [
                {
                    "internalType": "uint256",
                    "name": "",
                    "type": "uint256"
                }
            ],
            "name": "allCoins",
            "outputs": [
                {
                    "internalType": "string",
                    "name": "artName",
                    "type": "string"
                },
                {
                    "internalType": "string",
                    "name": "artist",
                    "type": "string"
                }
            ],
            "stateMutability": "view",
            "type": "function"
        },
        {
            "inputs": [
                {
                    "internalType": "address",
                    "name": "_approved",
                    "type": "address"
                },
                {
                    "internalType": "uint256",
                    "name": "_tokenId",
                    "type": "uint256"
                }
            ],
            "name": "approve",
            "outputs": [],
            "stateMutability": "payable",
            "type": "function"
        },
        {
            "inputs": [
                {
                    "internalType": "uint256",
                    "name": "",
                    "type": "uint256"
                }
            ],
            "name": "artToOwner",
            "outputs": [
                {
                    "internalType": "address",
                    "name": "",
                    "type": "address"
                }
            ],
            "stateMutability": "view",
            "type": "function"
        },
        {
            "inputs": [
                {
                    "internalType": "address",
                    "name": "_owner",
                    "type": "address"
                }
            ],
            "name": "balanceOf",
            "outputs": [
                {
                    "internalType": "uint256",
                    "name": "",
                    "type": "uint256"
                }
            ],
            "stateMutability": "view",
            "type": "function"
        },
        {
            "inputs": [
                {
                    "internalType": "uint256",
                    "name": "_tokenId",
                    "type": "uint256"
                }
            ],
            "name": "getApproved",
            "outputs": [
                {
                    "internalType": "address",
                    "name": "",
                    "type": "address"
                }
            ],
            "stateMutability": "view",
            "type": "function"
        },
        {
            "inputs": [
                {
                    "internalType": "address",
                    "name": "_owner",
                    "type": "address"
                },
                {
                    "internalType": "address",
                    "name": "_operator",
                    "type": "address"
                }
            ],
            "name": "isApprovedForAll",
            "outputs": [
                {
                    "internalType": "bool",
                    "name": "",
                    "type": "bool"
                }
            ],
            "stateMutability": "view",
            "type": "function"
        },
        {
            "inputs": [],
            "name": "isOwner",
            "outputs": [
                {
                    "internalType": "bool",
                    "name": "",
                    "type": "bool"
                }
            ],
            "stateMutability": "view",
            "type": "function"
        },
        {
            "inputs": [],
            "name": "owner",
            "outputs": [
                {
                    "internalType": "address",
                    "name": "",
                    "type": "address"
                }
            ],
            "stateMutability": "view",
            "type": "function"
        },
        {
            "inputs": [
                {
                    "internalType": "uint256",
                    "name": "_tokenId",
                    "type": "uint256"
                }
            ],
            "name": "ownerOf",
            "outputs": [
                {
                    "internalType": "address",
                    "name": "",
                    "type": "address"
                }
            ],
            "stateMutability": "view",
            "type": "function"
        },
        {
            "inputs": [],
            "name": "renounceOwnership",
            "outputs": [],
            "stateMutability": "nonpayable",
            "type": "function"
        },
        {
            "inputs": [
                {
                    "internalType": "address",
                    "name": "_from",
                    "type": "address"
                },
                {
                    "internalType": "address",
                    "name": "_to",
                    "type": "address"
                },
                {
                    "internalType": "uint256",
                    "name": "_tokenId",
                    "type": "uint256"
                }
            ],
            "name": "safeTransferFrom",
            "outputs": [],
            "stateMutability": "payable",
            "type": "function"
        },
        {
            "inputs": [
                {
                    "internalType": "address",
                    "name": "_from",
                    "type": "address"
                },
                {
                    "internalType": "address",
                    "name": "_to",
                    "type": "address"
                },
                {
                    "internalType": "uint256",
                    "name": "_tokenId",
                    "type": "uint256"
                },
                {
                    "internalType": "bytes",
                    "name": "_data",
                    "type": "bytes"
                }
            ],
            "name": "safeTransferFrom",
            "outputs": [],
            "stateMutability": "payable",
            "type": "function"
        },
        {
            "inputs": [
                {
                    "internalType": "address",
                    "name": "_operator",
                    "type": "address"
                },
                {
                    "internalType": "bool",
                    "name": "_approved",
                    "type": "bool"
                }
            ],
            "name": "setApprovalForAll",
            "outputs": [],
            "stateMutability": "nonpayable",
            "type": "function"
        },
        {
            "inputs": [
                {
                    "internalType": "address",
                    "name": "_from",
                    "type": "address"
                },
                {
                    "internalType": "address",
                    "name": "_to",
                    "type": "address"
                },
                {
                    "internalType": "uint256",
                    "name": "_tokenId",
                    "type": "uint256"
                }
            ],
            "name": "transferFrom",
            "outputs": [],
            "stateMutability": "payable",
            "type": "function"
        },
        {
            "inputs": [
                {
                    "internalType": "address",
                    "name": "newOwner",
                    "type": "address"
                }
            ],
            "name": "transferOwnership",
            "outputs": [],
            "stateMutability": "nonpayable",
            "type": "function"
        }
    ],
    "bytecode": "608060405234801561001057600080fd5b50600080546001600160a01b03191633178082556040516001600160a01b039190911691907f8be0079c531659141344cd1fd0a4f28419497f9722a3daafe3b4186f6b6457e0908290a3611428806100696000396000f3fe6080604052600436106100f35760003560e01c80638da5cb5b1161008a578063b353aa1311610059578063b353aa1314610407578063b88d4fde146104df578063e985e9c51461056f578063f2fde38b146105aa576100f3565b80638da5cb5b146103645780638f32d59b14610379578063a22cb465146103a2578063b10cb87a146103dd576100f3565b806342842e0e116100c657806342842e0e146102aa5780636352211e146102e057806370a082311461030a578063715018a61461034f576100f3565b8063081812fc146100f8578063095ea7b31461013e57806313560cac1461016c57806323b872dd14610274575b600080fd5b34801561010457600080fd5b506101226004803603602081101561011b57600080fd5b50356105dd565b604080516001600160a01b039092168252519081900360200190f35b61016a6004803603604081101561015457600080fd5b506001600160a01b0381351690602001356105f8565b005b34801561017857600080fd5b506101966004803603602081101561018f57600080fd5b5035610777565b604051808060200180602001838103835285818151815260200191508051906020019080838360005b838110156101d75781810151838201526020016101bf565b50505050905090810190601f1680156102045780820380516001836020036101000a031916815260200191505b50838103825284518152845160209182019186019080838360005b8381101561023757818101518382015260200161021f565b50505050905090810190601f1680156102645780820380516001836020036101000a031916815260200191505b5094505050505060405180910390f35b61016a6004803603606081101561028a57600080fd5b506001600160a01b038135811691602081013590911690604001356108c2565b61016a600480360360608110156102c057600080fd5b506001600160a01b03813581169160208101359091169060400135610aa8565b3480156102ec57600080fd5b506101226004803603602081101561030357600080fd5b5035610ac8565b34801561031657600080fd5b5061033d6004803603602081101561032d57600080fd5b50356001600160a01b0316610ae3565b60408051918252519081900360200190f35b34801561035b57600080fd5b5061016a610afe565b34801561037057600080fd5b50610122610b8d565b34801561038557600080fd5b5061038e610b9d565b604080519115158252519081900360200190f35b3480156103ae57600080fd5b5061016a600480360360408110156103c557600080fd5b506001600160a01b0381351690602001351515610bae565b3480156103e957600080fd5b506101226004803603602081101561040057600080fd5b5035610c1c565b34801561041357600080fd5b5061016a6004803603606081101561042a57600080fd5b81019060208101813564010000000081111561044557600080fd5b82018360208201111561045757600080fd5b8035906020019184600183028401116401000000008311171561047957600080fd5b91939092909160208101903564010000000081111561049757600080fd5b8201836020820111156104a957600080fd5b803590602001918460018302840111640100000000831117156104cb57600080fd5b9193509150356001600160a01b0316610c37565b61016a600480360360808110156104f557600080fd5b6001600160a01b0382358116926020810135909116916040820135919081019060808101606082013564010000000081111561053057600080fd5b82018360208201111561054257600080fd5b8035906020019184600183028401116401000000008311171561056457600080fd5b509092509050610e27565b34801561057b57600080fd5b5061038e6004803603604081101561059257600080fd5b506001600160a01b0381358116916020013516610e70565b3480156105b657600080fd5b5061016a600480360360208110156105cd57600080fd5b50356001600160a01b0316610e9e565b6000908152600460205260409020546001600160a01b031690565b60008181526002602052604090205481906001600160a01b03163381148061063657506000828152600460205260409020546001600160a01b031633145b8061066457506001600160a01b038116600090815260056020908152604080832033845290915290205460ff165b6106b5576040805162461bcd60e51b815260206004820152601e60248201527f53656e646572206e6f7420616c6c6f77656420746f207472616e736665720000604482015290519081900360640190fd5b6000838152600260205260409020546001600160a01b03908116908516811415610719576040805162461bcd60e51b815260206004820152601060248201526f24b99030b63932b0b23c9027bbb732b960811b604482015290519081900360640190fd5b60008481526004602052604080822080546001600160a01b0319166001600160a01b0389811691821790925591518793918516917f8c5be1e5ebec7d5bd14f71427d1e84f3dd0314c0f7b2291e5b200ac8c7c3b92591a45050505050565b6001818154811061078457fe5b60009182526020918290206002918202018054604080516001831615610100026000190190921693909304601f81018590048502820185019093528281529093509183919083018282801561081a5780601f106107ef5761010080835404028352916020019161081a565b820191906000526020600020905b8154815290600101906020018083116107fd57829003601f168201915b505050505090806001018054600181600116156101000203166002900480601f0160208091040260200160405190810160405280929190818152602001828054600181600116156101000203166002900480156108b85780601f1061088d576101008083540402835291602001916108b8565b820191906000526020600020905b81548152906001019060200180831161089b57829003601f168201915b5050505050905082565b60008181526002602052604090205481906001600160a01b03163381148061090057506000828152600460205260409020546001600160a01b031633145b8061092e57506001600160a01b038116600090815260056020908152604080832033845290915290205460ff165b61097f576040805162461bcd60e51b815260206004820152601e60248201527f53656e646572206e6f7420616c6c6f77656420746f207472616e736665720000604482015290519081900360640190fd5b60008381526002602052604090205483906001600160a01b03166109de576040805162461bcd60e51b81526020600482015260116024820152702737ba103b30b634b21030b93a21b7b4b760791b604482015290519081900360640190fd5b6000848152600260205260409020546001600160a01b039081169087168114610a3a576040805162461bcd60e51b81526020600482015260096024820152682737ba1027bbb732b960b91b604482015290519081900360640190fd5b6001600160a01b038616610a95576040805162461bcd60e51b815260206004820152601f60248201527f43616e6e6f74207472616e7366657220746f205a65726f204164647265737300604482015290519081900360640190fd5b610a9f8686610eef565b50505050505050565b610ac383838360405180602001604052806000815250610f50565b505050565b6000908152600260205260409020546001600160a01b031690565b6001600160a01b031660009081526003602052604090205490565b610b06610b9d565b610b43576040805162461bcd60e51b81526020600482015260096024820152682737ba1037bbb732b960b91b604482015290519081900360640190fd5b600080546040516001600160a01b03909116907f8be0079c531659141344cd1fd0a4f28419497f9722a3daafe3b4186f6b6457e0908390a3600080546001600160a01b0319169055565b6000546001600160a01b03165b90565b6000546001600160a01b0316331490565b3360008181526005602090815260408083206001600160a01b03871680855290835292819020805460ff1916861515908117909155815190815290519293927f17307eab39ab6107e8899845ad3d59bd9653f200f220920489ca2b5937696c31929181900390910190a35050565b6002602052600090815260409020546001600160a01b031681565b610c3f610b9d565b610c7c576040805162461bcd60e51b81526020600482015260096024820152682737ba1037bbb732b960b91b604482015290519081900360640190fd5b6040805160606020601f8801819004028201810183529181018681526001928291908990899081908501838280828437600092019190915250505090825250604080516020601f8801819004810282018101909252868152918101919087908790819084018382808284376000920182905250939094525050835460018101855593815260209081902083518051949560020290910193610d24935084929190910190611335565b506020828101518051610d3d9260018501920190611335565b50506001805460001901600081815260026020908152604080832080546001600160a01b0319166001600160a01b038916908117909155835260038252918290208054909401909355805182815260609381018481529381018990529193507f13eae86e588e48d8365857d80df96195e666006a78c5840e726a22865dc962939284928a928a928a928a92909190820160808301878780828437600083820152601f01601f191690910184810383528581526020019050858580828437600083820152604051601f909101601f1916909201829003995090975050505050505050a1505050505050565b610e6985858585858080601f016020809104026020016040519081016040528093929190818152602001838380828437600092019190915250610f5092505050565b5050505050565b6001600160a01b03918216600090815260056020908152604080832093909416825291909152205460ff1690565b610ea6610b9d565b610ee3576040805162461bcd60e51b81526020600482015260096024820152682737ba1037bbb732b960b91b604482015290519081900360640190fd5b610eec8161128d565b50565b600090815260026020908152604080832080546001600160a01b039586166001600160a01b03198083168217909355600485528386208054909316909255949094168352600390915280822080546000190190559181522080546001019055565b60008281526002602052604090205482906001600160a01b031633811480610f8e57506000828152600460205260409020546001600160a01b031633145b80610fbc57506001600160a01b038116600090815260056020908152604080832033845290915290205460ff165b61100d576040805162461bcd60e51b815260206004820152601e60248201527f53656e646572206e6f7420616c6c6f77656420746f207472616e736665720000604482015290519081900360640190fd5b60008481526002602052604090205484906001600160a01b031661106c576040805162461bcd60e51b81526020600482015260116024820152702737ba103b30b634b21030b93a21b7b4b760791b604482015290519081900360640190fd5b6000858152600260205260409020546001600160a01b0390811690881681146110c8576040805162461bcd60e51b81526020600482015260096024820152682737ba1027bbb732b960b91b604482015290519081900360640190fd5b6001600160a01b038716611123576040805162461bcd60e51b815260206004820152601f60248201527f43616e6e6f74207472616e7366657220746f205a65726f204164647265737300604482015290519081900360640190fd5b61112d8787610eef565b6111368761132f565b1561128357604051630a85bd0160e11b815233600482018181526001600160a01b038b81166024850152604484018a9052608060648501908152895160848601528951600095928d169463150b7a029490938f938e938e939260a4019060208501908083838e5b838110156111b557818101518382015260200161119d565b50505050905090810190601f1680156111e25780820380516001836020036101000a031916815260200191505b5095505050505050602060405180830381600087803b15801561120457600080fd5b505af1158015611218573d6000803e3d6000fd5b505050506040513d602081101561122e57600080fd5b505190506001600160e01b03198116630a85bd0160e11b146112815760405162461bcd60e51b81526004018080602001828103825260258152602001806113ce6025913960400191505060405180910390fd5b505b5050505050505050565b6001600160a01b0381166112d4576040805162461bcd60e51b81526020600482015260096024820152682737ba1037bbb732b960b91b604482015290519081900360640190fd5b600080546040516001600160a01b03808516939216917f8be0079c531659141344cd1fd0a4f28419497f9722a3daafe3b4186f6b6457e091a3600080546001600160a01b0319166001600160a01b0392909216919091179055565b3b151590565b828054600181600116156101000203166002900490600052602060002090601f016020900481019282601f1061137657805160ff19168380011785556113a3565b828001600101855582156113a3579182015b828111156113a3578251825591602001919060010190611388565b506113af9291506113b3565b5090565b610b9a91905b808211156113af57600081556001016113b956fe436f6e7472616374206e6f742061626c6520746f20726563656976652061727420636f696ea264697066735822122051424f5d8a79ff960614f82d13132f5d84b770f4917160919e15f96844ec3b0564736f6c63430006080033",
    "sourcePath": "/home/hensen/ethTutorial/contracts/ArtCoinFactory.sol",
    "compiler": {
        "name": "solc",
        "version": "0.6.8+commit.0bbfe453"
    },
    "functionHashes": {
        "_createArtCoin(string,string,address)": "b353aa13",
        "allCoins(uint256)": "13560cac",
        "approve(address,uint256)": "095ea7b3",
        "artToOwner(uint256)": "b10cb87a",
        "balanceOf(address)": "70a08231",
        "getApproved(uint256)": "081812fc",
        "isApprovedForAll(address,address)": "e985e9c5",
        "isOwner()": "8f32d59b",
        "owner()": "8da5cb5b",
        "ownerOf(uint256)": "6352211e",
        "renounceOwnership()": "715018a6",
        "safeTransferFrom(address,address,uint256)": "42842e0e",
        "safeTransferFrom(address,address,uint256,bytes)": "b88d4fde",
        "setApprovalForAll(address,bool)": "a22cb465",
        "transferFrom(address,address,uint256)": "23b872dd",
        "transferOwnership(address)": "f2fde38b"
    },
    "gasEstimates": {
        "creation": {
            "codeDepositCost": "1032000",
            "executionCost": "23463",
            "totalCost": "1055463"
        },
        "external": {
            "_createArtCoin(string,string,address)": "infinite",
            "allCoins(uint256)": "infinite",
            "approve(address,uint256)": "26828",
            "artToOwner(uint256)": "1234",
            "balanceOf(address)": "1209",
            "getApproved(uint256)": "1169",
            "isApprovedForAll(address,address)": "1328",
            "isOwner()": "1072",
            "owner()": "1061",
            "ownerOf(uint256)": "1190",
            "renounceOwnership()": "24281",
            "safeTransferFrom(address,address,uint256)": "infinite",
            "safeTransferFrom(address,address,uint256,bytes)": "infinite",
            "setApprovalForAll(address,bool)": "23124",
            "transferFrom(address,address,uint256)": "88607",
            "transferOwnership(address)": "24446"
        },
        "internal": {
            "_safeTransfer(address,address,uint256,bytes memory)": "infinite",
            "_transfer(address,uint256)": "83590",
            "isContract(address)": "718"
        }
    }
}